{
  "contractName": "Greeter",
  "abi": [
    {
      "constant": true,
      "inputs": [],
      "name": "welcome",
      "outputs": [
        {
          "name": "",
          "type": "string"
        }
      ],
      "payable": false,
      "stateMutability": "pure",
      "type": "function"
    }
  ],
  "bytecode": "0x608060405234801561001057600080fd5b5061013f806100206000396000f300608060405260043610610041576000357c0100000000000000000000000000000000000000000000000000000000900463ffffffff168063b627cf3b14610046575b600080fd5b34801561005257600080fd5b5061005b6100d6565b6040518080602001828103825283818151815260200191508051906020019080838360005b8381101561009b578082015181840152602081019050610080565b50505050905090810190601f1680156100c85780820380516001836020036101000a031916815260200191505b509250505060405180910390f35b60606040805190810160405280602081526020017f57656c636f6d6520746f20636f6d6d697467726f756e6420706c6174666f726d8152509050905600a165627a7a723058207832b7e130671fa2c348623f40b7ed11d3332f2d71f0e32b25ff122333e994a40029",
  "source": "pragma solidity ^0.4.23;\n\ncontract Greeter {\n  function welcome() pure public returns (string){\n    return \"Welcome to commitground platform\";\n  }\n}\n",
  "sourcePath": "/home/james/Projects/James-Lim/commitground-contracts/contracts/Greeter.sol",
  "compiler": {
    "name": "solc",
    "version": "0.4.24+commit.e67f0147.Emscripten.clang"
  },
  "schemaVersion": "2.0.1",
  "updatedAt": "2018-07-09T02:58:04.375Z"
}